{
  "contractName": "MinerRegistration",
  "abi": [
    {
      "constant": true,
      "inputs": [
        {
          "name": "",
          "type": "bytes32"
        }
      ],
      "name": "verifiedBlock",
      "outputs": [
        {
          "name": "",
          "type": "bool"
        }
      ],
      "payable": false,
      "stateMutability": "view",
      "type": "function",
      "signature": "0x04abe8af"
    },
    {
      "constant": true,
      "inputs": [],
      "name": "tranSet",
      "outputs": [
        {
          "name": "creator",
          "type": "address"
        },
        {
          "name": "height",
          "type": "uint256"
        }
      ],
      "payable": false,
      "stateMutability": "view",
      "type": "function",
      "signature": "0x2be36389"
    },
    {
      "constant": true,
      "inputs": [],
      "name": "manager",
      "outputs": [
        {
          "name": "",
          "type": "address"
        }
      ],
      "payable": false,
      "stateMutability": "view",
      "type": "function",
      "signature": "0x481c6a75"
    },
    {
      "constant": true,
      "inputs": [
        {
          "name": "",
          "type": "address"
        }
      ],
      "name": "miners",
      "outputs": [
        {
          "name": "miner",
          "type": "address"
        },
        {
          "name": "regState",
          "type": "string"
        },
        {
          "name": "isValid",
          "type": "bool"
        }
      ],
      "payable": false,
      "stateMutability": "view",
      "type": "function",
      "signature": "0x648ec7b9"
    },
    {
      "constant": true,
      "inputs": [
        {
          "name": "",
          "type": "uint256"
        },
        {
          "name": "",
          "type": "bytes32"
        }
      ],
      "name": "logger",
      "outputs": [
        {
          "name": "",
          "type": "bool"
        }
      ],
      "payable": false,
      "stateMutability": "view",
      "type": "function",
      "signature": "0x9aba4f6a"
    },
    {
      "constant": true,
      "inputs": [],
      "name": "deposit",
      "outputs": [
        {
          "name": "",
          "type": "uint256"
        }
      ],
      "payable": false,
      "stateMutability": "view",
      "type": "function",
      "signature": "0xd0e30db0"
    },
    {
      "constant": true,
      "inputs": [
        {
          "name": "",
          "type": "bytes32"
        }
      ],
      "name": "verifiedVoucher",
      "outputs": [
        {
          "name": "",
          "type": "bool"
        }
      ],
      "payable": false,
      "stateMutability": "view",
      "type": "function",
      "signature": "0xe2ac7ef8"
    },
    {
      "constant": true,
      "inputs": [],
      "name": "blockheight",
      "outputs": [
        {
          "name": "",
          "type": "uint256"
        }
      ],
      "payable": false,
      "stateMutability": "view",
      "type": "function",
      "signature": "0xf4fa6c1d"
    },
    {
      "inputs": [
        {
          "name": "_deposit",
          "type": "uint256"
        }
      ],
      "payable": false,
      "stateMutability": "nonpayable",
      "type": "constructor",
      "signature": "constructor"
    },
    {
      "constant": false,
      "inputs": [],
      "name": "Contribute",
      "outputs": [],
      "payable": true,
      "stateMutability": "payable",
      "type": "function",
      "signature": "0xb309a91a"
    },
    {
      "constant": false,
      "inputs": [
        {
          "name": "count",
          "type": "uint256"
        },
        {
          "name": "_trans",
          "type": "bytes32[]"
        },
        {
          "name": "_height",
          "type": "uint256"
        }
      ],
      "name": "CreateTranset",
      "outputs": [],
      "payable": false,
      "stateMutability": "nonpayable",
      "type": "function",
      "signature": "0x56941f3b"
    },
    {
      "constant": false,
      "inputs": [],
      "name": "Register",
      "outputs": [
        {
          "name": "",
          "type": "bytes32"
        }
      ],
      "payable": false,
      "stateMutability": "nonpayable",
      "type": "function",
      "signature": "0x19e5bf3a"
    },
    {
      "constant": false,
      "inputs": [],
      "name": "CheckHeight",
      "outputs": [],
      "payable": false,
      "stateMutability": "nonpayable",
      "type": "function",
      "signature": "0xc90a00e5"
    },
    {
      "constant": false,
      "inputs": [
        {
          "name": "_voucher",
          "type": "bytes32"
        },
        {
          "name": "pre_hash",
          "type": "bytes32"
        },
        {
          "name": "current_hash",
          "type": "bytes32"
        },
        {
          "name": "_height",
          "type": "uint256"
        }
      ],
      "name": "CheckBlock",
      "outputs": [
        {
          "name": "",
          "type": "bool"
        }
      ],
      "payable": false,
      "stateMutability": "nonpayable",
      "type": "function",
      "signature": "0xb243fccf"
    },
    {
      "constant": false,
      "inputs": [],
      "name": "Withdraw",
      "outputs": [],
      "payable": true,
      "stateMutability": "payable",
      "type": "function",
      "signature": "0x57ea89b6"
    }
  ],
  "bytecode": "0x608060405234801561001057600080fd5b506040516020806112658339810180604052602081101561003057600080fd5b8101908080519060200190929190505050336000806101000a81548173ffffffffffffffffffffffffffffffffffffffff021916908373ffffffffffffffffffffffffffffffffffffffff160217905550806008819055506000600a8190555043600981905550506111be806100a76000396000f3fe6080604052600436106100d0576000357c0100000000000000000000000000000000000000000000000000000000900463ffffffff16806304abe8af146100d557806319e5bf3a146101285780632be3638914610153578063481c6a75146101b157806356941f3b1461020857806357ea89b6146102e1578063648ec7b9146102eb5780639aba4f6a146103f3578063b243fccf14610450578063b309a91a146104c1578063c90a00e5146104cb578063d0e30db0146104e2578063e2ac7ef81461050d578063f4fa6c1d14610560575b600080fd5b3480156100e157600080fd5b5061010e600480360360208110156100f857600080fd5b810190808035906020019092919050505061058b565b604051808215151515815260200191505060405180910390f35b34801561013457600080fd5b5061013d6105ab565b6040518082815260200191505060405180910390f35b34801561015f57600080fd5b50610168610747565b604051808373ffffffffffffffffffffffffffffffffffffffff1673ffffffffffffffffffffffffffffffffffffffff1681526020018281526020019250505060405180910390f35b3480156101bd57600080fd5b506101c6610779565b604051808273ffffffffffffffffffffffffffffffffffffffff1673ffffffffffffffffffffffffffffffffffffffff16815260200191505060405180910390f35b34801561021457600080fd5b506102df6004803603606081101561022b57600080fd5b81019080803590602001909291908035906020019064010000000081111561025257600080fd5b82018360208201111561026457600080fd5b8035906020019184602083028401116401000000008311171561028657600080fd5b919080806020026020016040519081016040528093929190818152602001838360200280828437600081840152601f19601f8201169050808301925050505050505091929192908035906020019092919050505061079e565b005b6102e9610896565b005b3480156102f757600080fd5b5061033a6004803603602081101561030e57600080fd5b81019080803573ffffffffffffffffffffffffffffffffffffffff169060200190929190505050610a0e565b604051808473ffffffffffffffffffffffffffffffffffffffff1673ffffffffffffffffffffffffffffffffffffffff1681526020018060200183151515158152602001828103825284818151815260200191508051906020019080838360005b838110156103b657808201518184015260208101905061039b565b50505050905090810190601f1680156103e35780820380516001836020036101000a031916815260200191505b5094505050505060405180910390f35b3480156103ff57600080fd5b506104366004803603604081101561041657600080fd5b810190808035906020019092919080359060200190929190505050610afd565b604051808215151515815260200191505060405180910390f35b34801561045c57600080fd5b506104a76004803603608081101561047357600080fd5b8101908080359060200190929190803590602001909291908035906020019092919080359060200190929190505050610b2c565b604051808215151515815260200191505060405180910390f35b6104c9610c9d565b005b3480156104d757600080fd5b506104e0610e3b565b005b3480156104ee57600080fd5b506104f7610fb3565b6040518082815260200191505060405180910390f35b34801561051957600080fd5b506105466004803603602081101561053057600080fd5b8101908080359060200190929190505050610fb9565b604051808215151515815260200191505060405180910390f35b34801561056c57600080fd5b50610575610fd9565b6040518082815260200191505060405180910390f35b60066020528060005260406000206000915054906101000a900460ff1681565b60008060009054906101000a900473ffffffffffffffffffffffffffffffffffffffff1673ffffffffffffffffffffffffffffffffffffffff163373ffffffffffffffffffffffffffffffffffffffff1614151561060857600080fd5b60016009540160016002015414151561062057600080fd5b6000600160000180549050426001600001600081548110151561063f57fe5b90600052602060002001546040516020018083815260200182815260200192505050604051602081830303815290604052805190602001206001900481151561068457fe5b069050600060016000018281548110151561069b57fe5b9060005260206000200154905042816001840160405160200180848152602001838152602001828152602001935050505060405160208183030381529060405280519060200120600a8190555060016005600060016002015481526020019081526020016000206000600a54815260200190815260200160002060006101000a81548160ff0219169083151502179055506001600960008282540192505081905550600a549250505090565b60018060010160009054906101000a900473ffffffffffffffffffffffffffffffffffffffff16908060020154905082565b6000809054906101000a900473ffffffffffffffffffffffffffffffffffffffff1681565b6001600080820160006107b19190610fdf565b6001820160006101000a81549073ffffffffffffffffffffffffffffffffffffffff02191690556002820160009055505060008090505b83811015610843576001600001838281518110151561080357fe5b90602001906020020151908060018154018082558091505090600182039060005260206000200160009091929091909150555080806001019150506107e8565b50336001800160006101000a81548173ffffffffffffffffffffffffffffffffffffffff021916908373ffffffffffffffffffffffffffffffffffffffff16021790555080600160020181905550505050565b6000600460003373ffffffffffffffffffffffffffffffffffffffff1673ffffffffffffffffffffffffffffffffffffffff16815260200190815260200160002060010190506040805190810160405280600a81526020017f7265676973746572656400000000000000000000000000000000000000000000815250518180546001816001161561010002031660029004905014151561093557600080fd5b3373ffffffffffffffffffffffffffffffffffffffff166108fc6008549081150290604051600060405180830381858888f1935050505015801561097d573d6000803e3d6000fd5b50600460003373ffffffffffffffffffffffffffffffffffffffff1673ffffffffffffffffffffffffffffffffffffffff168152602001908152602001600020600080820160006101000a81549073ffffffffffffffffffffffffffffffffffffffff02191690556001820160006109f59190611000565b6002820160006101000a81549060ff0219169055505050565b60046020528060005260406000206000915090508060000160009054906101000a900473ffffffffffffffffffffffffffffffffffffffff1690806001018054600181600116156101000203166002900480601f016020809104026020016040519081016040528092919081815260200182805460018160011615610100020316600290048015610ae05780601f10610ab557610100808354040283529160200191610ae0565b820191906000526020600020905b815481529060010190602001808311610ac357829003601f168201915b5050505050908060020160009054906101000a900460ff16905083565b60056020528160005260406000206020528060005260406000206000915091509054906101000a900460ff1681565b60008060009054906101000a900473ffffffffffffffffffffffffffffffffffffffff1673ffffffffffffffffffffffffffffffffffffffff163373ffffffffffffffffffffffffffffffffffffffff16141515610b8957600080fd5b60056000838152602001908152602001600020600086815260200190815260200160002060009054906101000a900460ff168015610be557506007600086815260200190815260200160002060009054906101000a900460ff16155b8015610c0e57506006600085815260200190815260200160002060009054906101000a900460ff165b15610c745760016007600087815260200190815260200160002060006101000a81548160ff02191690831515021790555060016006600085815260200190815260200160002060006101000a81548160ff02191690831515021790555060019050610c95565b600954821415610c905760016009600082825403925050819055505b600090505b949350505050565b60085434141515610cad57600080fd5b600460003373ffffffffffffffffffffffffffffffffffffffff1673ffffffffffffffffffffffffffffffffffffffff16815260200190815260200160002060020160009054906101000a900460ff16151515610d0957600080fd5b6060604051908101604052803373ffffffffffffffffffffffffffffffffffffffff1681526020016040805190810160405280600c81526020017f756e726567697374657265640000000000000000000000000000000000000000815250815260200160011515815250600460003373ffffffffffffffffffffffffffffffffffffffff1673ffffffffffffffffffffffffffffffffffffffff16815260200190815260200160002060008201518160000160006101000a81548173ffffffffffffffffffffffffffffffffffffffff021916908373ffffffffffffffffffffffffffffffffffffffff1602179055506020820151816001019080519060200190610e15929190611048565b5060408201518160020160006101000a81548160ff021916908315150217905550905050565b6000809054906101000a900473ffffffffffffffffffffffffffffffffffffffff1673ffffffffffffffffffffffffffffffffffffffff163373ffffffffffffffffffffffffffffffffffffffff16141515610e9657600080fd5b43600954141515610ef85760006005600060095481526020019081526020016000206000600a54815260200190815260200160002060006101000a81548160ff0219169083151502179055506001600960008282540392505081905550610fa9565b6040805190810160405280600a81526020017f7265676973746572656400000000000000000000000000000000000000000000815250600460006001800160009054906101000a900473ffffffffffffffffffffffffffffffffffffffff1673ffffffffffffffffffffffffffffffffffffffff1673ffffffffffffffffffffffffffffffffffffffff1681526020019081526020016000206001019080519060200190610fa79291906110c8565b505b6000600a81905550565b60085481565b60076020528060005260406000206000915054906101000a900460ff1681565b60095481565b5080546000825590600052602060002090810190610ffd9190611148565b50565b50805460018160011615610100020316600290046000825580601f106110265750611045565b601f016020900490600052602060002090810190611044919061116d565b5b50565b828054600181600116156101000203166002900490600052602060002090601f016020900481019282601f1061108957805160ff19168380011785556110b7565b828001600101855582156110b7579182015b828111156110b657825182559160200191906001019061109b565b5b5090506110c4919061116d565b5090565b828054600181600116156101000203166002900490600052602060002090601f016020900481019282601f1061110957805160ff1916838001178555611137565b82800160010185558215611137579182015b8281111561113657825182559160200191906001019061111b565b5b509050611144919061116d565b5090565b61116a91905b8082111561116657600081600090555060010161114e565b5090565b90565b61118f91905b8082111561118b576000816000905550600101611173565b5090565b9056fea165627a7a7230582045b5f2a4c2a7fc3d62fb05fe10f49ccfa69ee094ee1a19c09badb245bab2207b0029",
  "source": "pragma solidity ^0.5.0;\n/// @title Smart contract-based miner registration and block validation\n/// @author Shijie Zhang\n\ncontract MinerRegistration{\n    // Structure of each transaction set\n    struct TranSet{\n        bytes32[] transHash;  // Array of hash values of transactions\n        address creator; // Address of miner who creates this set\n        uint height; // Block height the set belongs to\n    }\n    \n    // Structure of each miner\n    struct Miner{\n        address miner;  // Address (120bit) of miner\n        string regState; // \"unregistered\" or \"registered\"\n        bool isValid; // Whether this miner exists in the hash table\n    }\n    \n    // Address of a node who delpoys and controls this contract\n    address public manager;\n    // Instantiation of TranSet\n    TranSet public tranSet;\n    // Mapping hash table of Miner\n    mapping(address => Miner) public miners;\n    // A logger that stores the voucher at each block height\n    mapping(uint => mapping(bytes32 => bool)) public logger;\n    // Check if the hash of one block passes the verification\n    mapping(bytes32 => bool) public verifiedBlock;\n    // Record the verificaiton status of voucher in each block\n    mapping(bytes32 => bool) public verifiedVoucher;\n    // Money each miner must deposit\n    uint public deposit;\n    // Counter of block height\n    uint public blockheight;\n    // Voucher issued by this contract\n    bytes32 private voucher;\n    // event GetVoucher(bytes32 _voucher); // For test\n    // event isValid(bool isvalid); // For test\n    \n    // Operation permissions of some functions\n    modifier restricted() {\n        require(msg.sender == manager);\n        _;\n    }\n    \n    // Constructor function\n    constructor(uint _deposit) public {\n        manager = msg.sender;\n        deposit = _deposit;\n        voucher = '';\n        blockheight = block.number;\n    }\n    \n    // Function of the miner's deposit\n    function Contribute() public payable {\n        // Ensure the miner has put into some money\n        require(msg.value == deposit);\n        \n        // Ensure existing miners cannot pay again\n        require(!miners[msg.sender].isValid);\n        \n        // Initialize Miner\n        miners[msg.sender] = Miner(msg.sender, 'unregistered', true);\n    }\n    \n    // Function of the miner's creating transaction set\n    function CreateTranset(uint count, bytes32[] memory _trans, uint _height) public {\n         /* Save storage space by deleting the previous set \n            before each miner creates a new set */\n        delete tranSet;\n        \n        // Add hash value of each transaction into tranSet\n        for(uint i=0; i<count; i++){\n            tranSet.transHash.push(_trans[i]);\n        }\n            tranSet.creator = msg.sender;\n            tranSet.height = _height;\n    }\n    \n    // Function of registration\n    function Register() public restricted returns (bytes32) {\n        // Ensure the transaction set belongs to the next block height\n        require(tranSet.height == blockheight + 1);\n        \n        // Randomly select a hash value of transaction in a set\n        uint index = uint(keccak256(abi.encodePacked(now, tranSet.transHash[0]))) \n                     % tranSet.transHash.length;\n        bytes32 selectedTran = tranSet.transHash[index];\n        \n        // Use sha256 to form a voucher\n        voucher = keccak256(abi.encodePacked(now, selectedTran, index+1));\n       \n        // Record each voucher in the logger\n        logger[tranSet.height][voucher] = true;\n        \n        blockheight += 1;\n        return voucher;\n        // emit GetVoucher(voucher); // For test\n    }\n    \n    // Function of checking block height\n    function CheckHeight() public restricted {\n        /* Cancel voucher record for malicious miners\n           who do not actually publish blocks */\n        if(blockheight != block.number){ // In test, blockheight != 1\n            logger[blockheight][voucher] = false;\n            blockheight -= 1;\n        }else {\n            \n            // Change registration state of valid miners\n            miners[tranSet.creator].regState = 'registered';\n        }\n        voucher = '';\n    }\n    \n    // Function of checking the validity of blocks\n    function CheckBlock(bytes32 _voucher, bytes32 pre_hash,\n        bytes32 current_hash, uint _height) public restricted returns (bool) {\n        // Check condition\n        if(logger[_height][_voucher] && !verifiedVoucher[_voucher] \n            && verifiedBlock[pre_hash])\n        {\n            verifiedVoucher[_voucher] = true;\n            verifiedBlock[current_hash] = true;\n            return true;\n            // emit isValid(true); // For test\n        }else {\n            if(_height == blockheight){\n                blockheight -= 1;\n            }\n            return false;\n            // emit isValid(false); // For test\n        }\n    }\n    \n    // Function of withdrawing the deposit\n    function Withdraw() public payable {\n        string storage _regState = miners[msg.sender].regState;\n        \n        // Only the miners with \"registered\" can withdraw the deposit     \n        require(bytes(_regState).length == bytes('registered').length);\n        msg.sender.transfer(deposit);\n        delete miners[msg.sender];\n    }\n}",
  "sourcePath": "/Users/apple/MinerRegistration/contracts/MinerRegistration.sol",
  "compiler": {
    "name": "solc",
    "version": "0.5.0+commit.1d4f565a.Emscripten.clang"
  },
  "schemaVersion": "3.0.6",
  "updatedAt": "2019-04-12T02:33:14.355Z",
  "devdoc": {
    "author": "Shijie Zhang",
    "methods": {},
    "title": "Smart contract-based miner registration and block validation"
  },
  "userdoc": {
    "methods": {}
  }
}